:100000000C9434000C943E000C943E000C943E0082
:100010000C943E000C943E000C943E000C943E0068
:100020000C943E000C943E000C943E000C943E0058
:100030000C943E000C943E000C943E000C943E0048
:100040000C943E000C943E000C943E000C943E0038
:100050000C943E000C943E000C943E000C943E0028
:100060000C943E000C943E0011241FBECFEFD8E04C
:10007000DEBFCDBF0E9440000C9476000C940000BF
:100080008FEF87B9C0E0D0E06C2FCE010E946800EE
:100090002196CF3FD105C1F7C0E0D0E0CE010E944C
:1000A000600088B92FEF83ED90E3215080409040AD
:1000B000E1F700C000002196CF3FD10579F7FFCFCF
:1000C000F999FECF92BD81BDF89A992780B5089520
:1000D000262FF999FECF1FBA92BD81BD20BD0FB664
:1000E000F894FA9AF99A0FBE01960895F894FFCF02
:00000001FF
