:100000000C9434000C943E000C943E000C943E0082
:100010000C943E000C943E000C943E000C943E0068
:100020000C943E000C943E000C943E000C943E0058
:100030000C943E000C943E000C943E000C943E0048
:100040000C943E000C943E000C943E000C943E0038
:100050000C943E000C943E000C943E000C943E0028
:100060000C943E000C943E0011241FBECFEFD8E04C
:10007000DEBFCDBF0E9440000C945A000C940000DB
:100080008FEF84B9E5E2F0E060E177E249E150E02A
:10009000AFEF10829B01CA010197F1F72150304068
:1000A000D1F7A0839B01CA010197F1F7215030409D
:0800B000D1F7EFCFF894FFCF68
:00000001FF
